:020000040000fa
:080000000002040000000000f2
:020000040000fa
:04000800ac06000042
:020000040000fa
:04000c0012060000d8
:020000040000fa
:0400100032060000b4
:020000040000fa
:04001400ec060000f6
:020000040000fa
:04001800cc06000012
:020000040000fa
:04001c00e20a0000f4
:020000040000fa
:040020005206000084
:020000040000fa
:04002400e20a0000ec
:020000040000fa
:04002800e20a0000e8
:020000040000fa
:04002c00e20a0000e4
:020000040000fa
:04003000e20a0000e0
:020000040000fa
:04003400e20a0000dc
:020000040000fa
:04003800e20a0000d8
:020000040000fa
:04003c00e20a0000d4
:020000040000fa
:04004000e20a0000d0
:020000040000fa
:04004400ac07000005
:020000040000fa
:04004800e20a0000c8
:020000040000fa
:04004c00e20a0000c4
:020000040000fa
:04005000e20a0000c0
:020000040000fa
:040054003808000068
:020000040000fa
:04005800d2070000cb
:020000040000fa
:04005c00e20a0000b4
:020000040000fa
:04006000e20a0000b0
:020000040000fa
:04006400e20a0000ac
:020000040000fa
:04006800e20a0000a8
:020000040000fa
:04006c00e20a0000a4
:020000040000fa
:04007000e20a0000a0
:020000040000fa
:040074000e07000073
:020000040000fa
:04007800e20a000098
:020000040000fa
:04007c00e20a000094
:020000040000fa
:04008000e20a000090
:020000040000fa
:04008400e20a00008c
:020000040000fa
:04008800e20a000088
:020000040000fa
:04008c00e20a000084
:020000040000fa
:04009000e20a000080
:020000040000fa
:04009400c00900009f
:020000040000fa
:040098005a09000001
:020000040000fa
:04009c00e20a000074
:020000040000fa
:0400a000e20a000070
:020000040000fa
:0400a400e20a00006c
:020000040000fa
:0400a800e20a000068
:020000040000fa
:0400ac00e20a000064
:020000040000fa
:0400b000e20a000060
:020000040000fa
:0400b400e20a00005c
:020000040000fa
:0400b800e20a000058
:020000040000fa
:0400bc00e20a000054
:020000040000fa
:0400c000e20a000050
:020000040000fa
:0400c400e20a00004c
:020000040000fa
:0400c800e20a000048
:020000040000fa
:0400cc00e20a000044
:020000040000fa
:0400d000e20a000040
:020000040000fa
:0400d400e20a00003c
:020000040000fa
:0400d800e20a000038
:020000040000fa
:0400dc008607000093
:020000040000fa
:0400e000e20a000030
:020000040000fa
:0400e400e20a00002c
:020000040000fa
:0400e800e20a000028
:020000040000fa
:0400ec00bc0800004c
:020000040000fa
:0400f000440a0000be
:020000040000fa
:0400f400e20a00001c
:020000040000fa
:0400f800e20a000018
:020000040000fa
:0400fc00e20a000014
:020000040000fa
:04010000e20a00000f
:020000040000fa
:04010400e20a00000b
:020000040000fa
:04010800e20a000007
:020000040000fa
:04010c00e20a000003
:020000040000fa
:04011000e20a0000ff
:020000040000fa
:04011400e20a0000fb
:020000040000fa
:04011800e20a0000f7
:020000040000fa
:04011c00e20a0000f3
:020000040000fa
:04012000e20a0000ef
:020000040000fa
:04012400e20a0000eb
:020000040000fa
:04012800e20a0000e7
:020000040000fa
:04012c00e20a0000e3
:020000040000fa
:04013000e20a0000df
:020000040000fa
:04013400e20a0000db
:020000040000fa
:04013800e20a0000d7
:020000040000fa
:04013c00e20a0000d3
:020000040000fa
:04014000e20a0000cf
:020000040000fa
:04014400e20a0000cb
:020000040000fa
:04014800e20a0000c7
:020000040000fa
:04014c00e20a0000c3
:020000040000fa
:04015000e20a0000bf
:020000040000fa
:040154003e07000062
:020000040000fa
:04015800e20a0000b7
:020000040000fa
:04015c00e20a0000b3
:020000040000fa
:04016000e20a0000af
:020000040000fa
:04016400e20a0000ab
:020000040000fa
:04016800e20a0000a7
:020000040000fa
:04016c00e20a0000a3
:020000040000fa
:04017000e20a00009f
:020000040000fa
:04017400e20a00009b
:020000040000fa
:04017800e20a000097
:020000040000fa
:04017c00e20a000093
:020000040000fa
:04018000e20a00008f
:020000040000fa
:04018400e20a00008b
:020000040000fa
:04018800e20a000087
:020000040000fa
:04018c00e20a000083
:020000040000fa
:0401900082050000e4
:020000040000fa
:04019400e20a00007b
:020000040000fa
:04019800e20a000077
:020000040000fa
:04019c00e20a000073
:020000040000fa
:0401a000e20a00006f
:020000040000fa
:0401a400e20a00006b
:020000040000fa
:0401a800e20a000067
:020000040000fa
:0401ac00e20a000063
:020000040000fa
:0401b000e20a00005f
:020000040000fa
:0401b400e20a00005b
:020000040000fa
:0401b800e20a000057
:020000040000fa
:0401bc00e20a000053
:020000040000fa
:0401c000e20a00004f
:020000040000fa
:0401c400e20a00004b
:020000040000fa
:0401c800e20a000047
:020000040000fa
:0401cc00e20a000043
:020000040000fa
:0401d000e20a00003f
:020000040000fa
:0401d400e20a00003b
:020000040000fa
:0401d800e20a000037
:020000040000fa
:0401dc00e20a000033
:020000040000fa
:0401e000e20a00002f
:020000040000fa
:0401e400e20a00002b
:020000040000fa
:0401e800e20a000027
:020000040000fa
:0401ec00d405000036
:020000040000fa
:0401f000e20a00001f
:020000040000fa
:0401f400e20a00001b
:020000040000fa
:0401f800e20a000017
:020000040000fa
:0401fc00e20a000013
:020000040000fa
:04020000e20a00000e
:020000040000fa
:04020400e20a00000a
:020000040000fa
:04020800e20a000006
:020000040000fa
:04020c00e20a000002
:020000040000fa
:04021000e20a0000fe
:020000040000fa
:04021400e20a0000fa
:020000040000fa
:04021800e20a0000f6
:020000040000fa
:04021c00e20a0000f2
:020000040000fa
:04022000e20a0000ee
:020000040000fa
:04022400e20a0000ea
:020000040000fa
:04022800e20a0000e6
:020000040000fa
:04022c00e20a0000e2
:020000040000fa
:04023000e20a0000de
:020000040000fa
:04023400e20a0000da
:020000040000fa
:04023800e20a0000d6
:020000040000fa
:04023c00e20a0000d2
:020000040000fa
:04024000e20a0000ce
:020000040000fa
:04024400e20a0000ca
:020000040000fa
:04024800e20a0000c6
:020000040000fa
:04024c00e20a0000c2
:020000040000fa
:04025000e20a0000be
:020000040000fa
:04025400e20a0000ba
:020000040000fa
:04025800e20a0000b6
:020000040000fa
:04025c00e20a0000b2
:020000040000fa
:04026000e20a0000ae
:020000040000fa
:04026400e20a0000aa
:020000040000fa
:04026800e20a0000a6
:020000040000fa
:04026c00e20a0000a2
:020000040000fa
:04027000e20a00009e
:020000040000fa
:04027400e20a00009a
:020000040000fa
:04027800e20a000096
:020000040000fa
:04027c00e20a000092
:020000040000fa
:04028000e20a00008e
:020000040000fa
:04028400e20a00008a
:020000040000fa
:04028800e20a000086
:020000040000fa
:04028c00e20a000082
:020000040000fa
:04029000e20a00007e
:020000040000fa
:04029400e20a00007a
:020000040000fa
:04029800e20a000076
:020000040000fa
:04029c00e20a000072
:020000040000fa
:0402a000e20a00006e
:020000040000fa
:0402a400e20a00006a
:020000040000fa
:0402a800e20a000066
:020000040000fa
:0402ac00e20a000062
:020000040000fa
:0402b000e20a00005e
:020000040000fa
:0402b400e20a00005a
:020000040000fa
:0402b800e20a000056
:020000040000fa
:0402bc00e20a000052
:020000040000fa
:0402c000e20a00004e
:020000040000fa
:0402c400e20a00004a
:020000040000fa
:0402c800e20a000046
:020000040000fa
:0402cc00e20a000042
:020000040000fa
:0402d000e20a00003e
:020000040000fa
:0402d400e20a00003a
:020000040000fa
:0402d800e20a000036
:020000040000fa
:0402dc00e20a000032
:020000040000fa
:0402e000e20a00002e
:020000040000fa
:0402e400e20a00002a
:020000040000fa
:0402e800e20a000026
:020000040000fa
:0402ec00e20a000022
:020000040000fa
:0402f000e20a00001e
:020000040000fa
:0402f400e20a00001a
:020000040000fa
:0402f800e20a000016
:020000040000fa
:0402fc00e20a000012
:020000040000fa
:04030000e20a00000d
:020000040000fa
:04030400e20a000009
:020000040000fa
:04030800e20a000005
:020000040000fa
:04030c00e20a000001
:020000040000fa
:04031000e20a0000fd
:020000040000fa
:04031400e20a0000f9
:020000040000fa
:04031800e20a0000f5
:020000040000fa
:04031c005009000084
:020000040000fa
:04032000d80a0000f7
:020000040000fa
:04032400e20a0000e9
:020000040000fa
:04032800e20a0000e5
:020000040000fa
:04032c00e20a0000e1
:020000040000fa
:04033000e20a0000dd
:020000040000fa
:04033400e20a0000d9
:020000040000fa
:10040000ef1121000eff26000e0188000000000001
:10041000000020000000e000020032000001200087
:1004200020028800140007008e0407000000e0008e
:1004300003003a0060a924000100200002003700f8
:100440000000200001002000810f70000100320038
:100450000f000700000020000000e0000200320052
:1004600000000200000000008a38020000000000c6
:100470000040da000000fe00c01520000000e0008f
:1004800002003200002020009001880000000600d9
:10049000a1028800800478000000eb001f003700f4
:1004a000e284440054a0b4009905ba00e2844400f8
:1004b00054a0b4009906ba00e284440054a0b400e9
:1004c0000006eb00476fde00fd07b200ae018800ba
:1004d000636ce10003003a000ad801000000eb0061
:1004e0000e003700606ce10008003a00004deb00a0
:1004f0000a05e800020039003420ec000af0a000f0
:100500008b05e900f9ff3e00040037006168e10057
:10051000010032000086eb000b00070019c7ba008b
:100520001905ba000e04e00003003a000a00e000da
:10053000dbff3a0000000600fe07b200ae028800b2
:100540008a047800f5ff37000cd0a300e20f4d00bd
:100550001c003b0089027800354dba000a05e8000e
:10056000020039003420ec000af0a0008b05e900fd
:100570000f003200254dba000a05e80002003900dc
:100580003420ec000af0a0008b05e90008003200de
:100590000c00e0000600320015cdba000a05e800a4
:1005a000020039003420ec000af0a0008b05e900bd
:1005b0008984e80054a0b4000b00e000e2ff3a0098
:1005c000000006009902ba00055d78008b05e9007d
:1005d000f7ff3200c82ade00055d78008b05e900d0
:1005e000f3ff32000c00e000f1ff320019ddba0029
:1005f000eeff37009a3d040000000000ce3d0400ed
:1006000000000000203e040000000000bc3d04008b
:10061000000000000e3e040000000000d83d040071
:1006200000000000003a040000000000183a040036
:1006300000000000303a040000000000463a0400c8
:10064000000000002a3c040000000000543d0400ab
:1006500000000000723a0400000000005e3b04004d
:10066000000000003a390400000000004239040094
:10067000000000004a390400000000005239040064
:10068000000000005a390400000000006239040034
:10069000000000007e39040000000000a8390400ba
:1006a00000000000c639040000000000ce3904003c
:1006b00000000000d639040000000000de3904000c
:1006c00000000000883d040000000000a03d040080
:1006d00000000000704c0400000000007e4c04008c
:1006e00000000000444c0400000000004c4c0400da
:1006f00000000000544c040000000000f64c040010
:1007000000000000044d040000000000cc4c040078
:1007100000000000d44c040000000000dc4c040089
:1007200000000000b44c040000000000c24c0400b3
:1007300000000000884c040000000000904c040001
:1007400000000000984c040000000000b4300400d9
:1007500000000000d82d040000000000622f0400fb
:10076000000000002c1d0400000000001c1d0400ff
:10077000000000003c1d040000000000481d0400b3
:1007800000000000541d040000000000601d040073
:1007900000000000041c040000000000a61d04006e
:1007a00000000000ec1d040000000000821e040098
:1007b00000000000c81e040000000000681f0400c4
:1007c000000000004e20040000000000162104007c
:1007d000000000007e21040000000000b821040099
:1007e00000000000f2210400000000002c220400a0
:1007f000000000006622040000000000ac2204009b
:1008000000000000f2220400000000004c2304005d
:100810000000000092230400000000009e24040059
:1008200000000000b626040000000000aa25040015
:1008300000000000ca1b040000000000901b040020
:1008400000000000d4290400000000001a2a04005f
:1008500000000000602a0400000000000a290400d3
:100860000000000044290400000000009e2d040048
:1008700000000000a62a040000000000642b040011
:1008800000000000222c040000000000e02c040006
:1008900000000000a230040000000000bc30040092
:1008a00000000000e234040000000000ec3404000a
:1008b00000000000f6340400000000009449040029
:1008c0000000000070460400000000008c45040099
:1008d00000000000be45040000000000ec450400dc
:1008e00000000000f8450400000000000446040079
:1008f00000000000404504000000000066450400c0
:10090000000000002e460400000000004c460400d9
:100910000000000022390400000000004e410400e5
:100920000000000066410400000000007e41040059
:10093000000000009641040000000000ae410400e9
:1009400000000000283e040000000000883e040073
:1009500000000000ae3e040000000000d83e04008d
:1009600000000000043f0400000000001a3f0400e3
:10097000000000004c3f0400000000007c3f040029
:1009800000000000843f0400000000008c3f0400d1
:1009900000000000b23f040000000000ca3f040055
:1009a00000000000e23f040000000000f83f0400e7
:1009b000000000001440040000000000a6400400f5
:1009c0000000000016410400000000002441040063
:1009d000000000003c4104000000000054410400fd
:1009e000000000006c41040000000000844104008d
:1009f000000000009c410400000000001c390400bd
:100a000000000000da44040000000000f24404008a
:100a1000000000000a450400000000002245040018
:100a2000000000003a45040000000000b44104004a
:100a30000000000014420400000000003a420400dc
:100a40000000000064420400000000009042040026
:100a500000000000a642040000000000d84204008c
:100a600000000000084304000000000010430400e0
:100a70000000000018430400000000003e43040092
:100a80000000000056430400000000006e43040014
:100a9000000000008443040000000000a0430400a4
:100aa000000000003244040000000000a2440400e2
:100ab00000000000b044040000000000c84404002e
:100ac00000000000e044040000000000f8440400be
:100ad000000000001045040000000000284504004c
:100ae000000000003836040000000000f01404008c
:100af000000000009c0f0400000000008c0b0400ac
:100b0000000000003600f800809fbe00829fbe00fb
:100b1000849fbe00869fbe003200f8003400f800bb
:100b200010002000a00188000020200000d0fe005e
:100b30000200fa00c08180000000e00002003200e4
:100b4000c0818000000001007040800062006000f1
:100b50000000e0000a003200c1618000010f78004f
:100b6000d08180000000e00004003200d2818000cb
:100b70009e0078000000eb00020001000e28a90092
:100b80000b48a9000080fa003400f9003200f90097
:100b90004f03be004f02be004f01be004f00be001b
:100ba0003600f900004006003600f800809fbe00c5
:100bb000829fbe00849fbe00869fbe003200f80068
:100bc0003400f80010002000a00188000020200060
:100bd00000d0fe000200fa00c1618000010f780021
:100be000d08180000000e00004003200d28180004b
:100bf0009e0078000000eb00020001000e28a90012
:100c00000080fa003400f9003200f9004f03be0002
:100c10004f02be004f01be004f00be003600f9007b
:100c2000004006003600f800809fbe00829fbe0094
:100c3000849fbe00869fbe000000fa00c068a90025
:100c400020002000a52307000080fa004f03be000b
:100c50004f02be004f01be004f00be003600f9003b
:100c6000004006003600f800809fbe00829fbe0054
:100c7000849fbe00869fbe000000fa00c608a9003f
:100c800070002000952307000080fa004f03be008b
:100c90004f02be004f01be004f00be003600f900fb
:100ca000004006003600f800809fbe00829fbe0014
:100cb000849fbe00869fbe000000fa002046800090
:100cc000700060000000e00003003200c488a9004a
:100cd000a0002000812307002146800000022000a0
:100ce000008060000000e00003003200c4a8a900fa
:100cf000900020007923070021468000001020008a
:100d0000008060000000e00003003200c508a90078
:100d1000c000200071230700214680000020200031
:100d2000008060000000e00003003200c528a90038
:100d3000d000200069230700204680006100600089
:100d40000000e00003003200c408a900b000200049
:100d500062230700ffff37003600f800809fbe00c7
:100d6000829fbe00849fbe00869fbe000000fa00e6
:100d7000c028a9000000eb00582307000080fa00fb
:100d80004f03be004f02be004f01be004f00be0029
:100d90003600f900004006003600f800809fbe00d3
:100da000829fbe00849fbe00869fbe000000fa00a6
:100db000c088a90030002000482307000080fa0006
:100dc0004f03be004f02be004f01be004f00be00e9
:100dd0003600f900004006003600f800809fbe0093
:100de000829fbe00849fbe00869fbe000000fa0066
:100df00041230700c048a900100020003723070046
:100e00000080fa004f03be004f02be004f01be003b
:100e10004f00be003600f900004006003600f80022
:100e2000809fbe00829fbe00849fbe00869fbe0042
:100e30000000fa0070728000680060000000e000ae
:100e400006003200f08180000000e0000200320065
:100e5000f0818000000001004e6ea9000268a90028
:100e60000080fa004f03be004f02be004f01be00db
:100e70004f00be003600f900004006003600f800c2
:100e8000809fbe00829fbe00849fbe00869fbe00e2
:100e90000000fa00517380000040200000806000d4
:100ea0000000e00006003200008280000000e00048
:100eb0000200320000828000000001006b4ea90099
:100ec0005173800000802000008060000000e0007e
:100ed00006003200108280000000e00002003200b4
:100ee00010828000000001006b6ea9000968a90053
:100ef0000080fa004f03be004f02be004f01be004b
:100f00004f00be003600f900004006003600f80031
:100f1000809fbe00829fbe00849fbe00869fbe0051
:100f20000000fa00b08180000000e0000200320002
:100f3000b08180000000010005a8a9000080fa002f
:100f40004f03be004f02be004f01be004f00be0067
:100f50003600f900004006003600f800809fbe0011
:100f6000829fbe00849fbe00869fbe000000fa00e4
:100f7000708280000000e000020032007082800079
:100f80000000010000e8a9000080fa004f03be0045
:100f90004f02be004f01be004f00be003600f900f8
:100fa000004006003600f800809fbe00829fbe0011
:100fb000849fbe00869fbe000000fa004180800032
:100fc00030808000808f50001b003a0070808000cd
:100fd0000000e0000200320070808000000001008c
:100fe0002188a90010c0b30050f0b70019003700e5
:100ff00040808000104078000080fb004012880094
:10100000408080000000e80040808800418080002f
:10101000700f2100808f500002003a00e00e210086
:10102000408088004180800030808000808f5000a8
:10103000070032000100370000000000f0118000be
:10104000700060000000e000e9ff3200010037009e
:10105000000000000080fa004f03be004f02be00f7
:101060004f01be004f00be003600f90000400600f0
:101070003600f800809fbe00829fbe00849fbe00a5
:10108000869fbe000400fa000000eb00000f78000d
:101090000000eb00100798000168a9002600370047
:1010a0001080800021128000814078000148780083
:1010b00080002000000f7800118080001107980048
:1010c0001e0090000000e80010079800700f21003b
:1010d0009e00400010808000808f50000800320089
:1010e000208080009e009000808f5000040032001d
:1010f000108080000000e800108088000e0037009b
:10110000700f21009e00400010808000808f5000f2
:1011100007003a0021808000700f2100808f50006e
:1011200003003200700f2100108088000200370099
:1011300010c0b3000af0b700f01180006200600038
:101140000000e000d6ff3200608080000000e00078
:101150000200320060808000000001000080fa0080
:101160004f03be004f02be004f01be004f00be0045
:101170003600f900004006003600f800809fbe00ef
:10118000829fbe00849fbe00869fbe000000fa00c2
:10119000e111800000022000008060000000e000fb
:1011a00004003200008080000040a0000080880021
:1011b0003ca2a900e0118000610060000000e00096
:1011c00009003200008080000030a000008088000c
:1011d000808080000000e0000200320080808000fb
:1011e000000001003c02a900e011800062006000e4
:1011f0000000e00009003200008080000020a00014
:1012000000808800a08080000000e0000200320022
:10121000a0808000000001003c22a900e1118000b4
:1012200000042000008060000000e00008003200a0
:10123000008080000010a00000808800b080800046
:101240000000e00002003200b080800000000100d9
:10125000e0118000680060000000e000080032003b
:10126000008080000000a000008088009080800046
:101270000000e000020032009080800000000100c9
:101280000628a9000080fa004f03be004f02be00ee
:101290004f01be004f00be003600f90000400600be
:1012a0000000fa005cc2a90017a8a9000080fa009b
:1012b000004006003600f800809fbe00829fbe00fe
:1012c000849fbe00869fbe000000fa00018180005e
:1012d000f0808000808f50001b003a003081800039
:1012e0000000e000020032003081800000000100b8
:1012f0002388a90010c0b30052f0b70019003700ce
:1013000000818000104078000080fb00801388007e
:10131000008180000000e8000081880001818000d9
:1013200090102100808f500002003a000010210030
:101330000081880001818000f0808000808f500053
:101340000700320001003700000000003013800069
:10135000700060000000e000e9ff3200010037008b
:10136000000000000080fa004f03be004f02be00e4
:101370004f01be004f00be003600f90000400600dd
:101380003600f800809fbe00829fbe00849fbe0092
:10139000869fbe000400fa000000eb00000f7800fa
:1013a0000000eb00100798000368a9002600370032
:1013b000d08080006113800081407800014878006f
:1013c00080002000000f7800d18080001107980075
:1013d0001e0090000000e800100798009010210007
:1013e0009e004000d0808000808f500008003200b6
:1013f000e08080009e009000808f5000040032004a
:10140000d08080000000e800d08088000e00370007
:10141000901021009e004000d0808000808f5000fe
:1014200007003a00e180800090102100808f50007a
:101430000300320090102100d080880002003700a5
:1014400010c0b30022f0b7003013800062006000cb
:101450000000e000d6ff3200208180000000e000a4
:101460000200320020818000000001000080fa00ac
:101470004f03be004f02be004f01be004f00be0032
:101480003600f900004006003600f800809fbe00dc
:10149000829fbe00849fbe00869fbe000000fa00af
:1014a0002113800000022000008060000000e000a6
:1014b00004003200c08080000040a000c08088008e
:1014c00064a2a90020138000610060000000e00019
:1014d00009003200c08080000030a000c080880079
:1014e000408180000000e000020032004081800066
:1014f000000001006402a900201380006200600067
:101500000000e00009003200c08080000020a00040
:10151000c0808800608180000000e000020032008e
:1015200060818000000001006422a9002113800076
:1015300000042000008060000000e000080032008d
:10154000c08080000010a000c080880070818000f2
:101550000000e00002003200708180000000010005
:1015600020138000680060000000e00008003200e6
:10157000c08080000000a000c080880050818000f2
:101580000000e000020032005081800000000100f5
:101590000648a9000080fa004f03be004f02be00bb
:1015a0004f01be004f00be003600f90000400600ab
:1015b0000000fa0084c2a90017c8a9000080fa0040
:1015c000004006000040da000000fe000a00fa00b9
:1015d00011002000b1bf9f00c0bf9f006a8057006c
:1015e000630607004fb897000080fa00000006006d
:1015f0000800fa00100798002107980032079800a9
:101600000000eb00000f780000000000e81b07005e
:101610000004a2000004e000fcff3a000a003700ca
:1016200000000000c91b07000004a2000004e00045
:10163000fcff3a002e0090001e0040001040780091
:101640001e0fe800a01b07003e0090009e007800df
:10165000808f5000f2ff39001e0078000080fa00f1
:1016600000000600000005006022b800060220000d
:101670000000d0008180d2000482d2008582d20096
:101680000000a0000202520083825a0003003100d1
:101690000202420083824a000000a1000603e90022
:1016a000f3ff3a00000006000000fa0068815700ce
:1016b000cfb89700b082800010007800fd010700cd
:1016c0000080fa00000006001a00070073000700ff
:1016d000260107004e010700a7000700740207005b
:1016e0001f023700b18280009100780018050700c2
:1016f000110020000000e00005003500b0828000ed
:1017000090007800a0002000c5050700cf00de0093
:101710000100ea000000060000000600c0052100ec
:1017200000000600fdff0700d0828800c08288000c
:1017300000000600ec874700889fbe008a9fbe001d
:101740008c9fbe008e1f7800000678000104780090
:10175000180790002805900098067800cdb79f00e4
:10176000b80590003202be002203be000400be0095
:101770000601be004f18de006011b8008000eb00cb
:10178000d0b79f00e1b79f00f2b79f0083bf9f00d3
:10179000800478000900e000060032006000b80014
:1017a0006011b800040250008582580006035900f9
:1017b000878359000e00e000020035000d10a100e3
:1017c000cdb79f000900e00005003a004fb0970038
:1017d0000028a30002003a000038a30002003200f3
:1017e0008a00e900010037008a007800f88157007c
:1017f000a200200008007800890007000900e0002e
:1018000003003a00cfb097000128a300080032007f
:101810000000e90000814500b1c2b3000900e0000a
:1018200001003200d1c2b300014978000600370040
:101830000138a300040032000000e9008080450068
:1018400002c2b30082487800480190000201e9001a
:1018500000015100808045004fb297008a01780056
:101860000c0078005d0207009c0090000188a30036
:101870000400320098009000810f500001003d00ec
:10188000010078004f0778004f06be004f05be00ec
:101890004f04be00cf00b100000006000200fa00b5
:1018a000889fbe008a9fbe008005780001047800f2
:1018b0000200780018019000280590009800780038
:1018c000b1bf9f00b80490000200e00002003500a4
:1018d0000110a100b1bf9f00ea81570082002000e3
:1018e0008a0078003002be002003be0008007800a5
:1018f0004b0007003fb99700f00061000400320080
:101900000000e9008080440002c3b30082487800f0
:101910003fb99700e8006100040032000000e900d0
:101920008080440002c2b3008248780048019000e1
:101930000201e90000015100808044003fba970095
:101940008a0178000b007800240207009b009000b9
:101950000188a3000400320098009000810f50001d
:1019600001003d00010078004f05be004f04be009d
:101970000080fa0000000600ea874700889fbe004a
:101980008a9fbe008e1f7800000478000300780054
:101990007287570084e2260055c72600049fbe00c8
:1019a000c3962200030f78006c875700004feb00ae
:1019b00011059000a1049000910578000200e0005c
:1019c00002003200020778000100370072875700da
:1019d0000000e00002003a000e0078001105070048
:1019e0000a00e000030035008a0f500001003600b5
:1019f0000a0078000b027800890178000001780065
:101a00008e00780008007800f40107004f07780086
:101a10004f05be004f04be00af00b100000006003d
:101a2000f4874700889fbe008a9fbe008c9fbe003f
:101a30008e1f78000605be000404be0081bf9f0013
:101a400082b79f00f3b79f00b0009000e1b79f00fe
:101a50001301780092b79f0090069000400090001c
:101a60000000e900000678000d00e00001003d00e4
:101a70001d002000efb19700008041000048eb00fe
:101a80001e0020001f0037000c06e9000fb0970071
:101a9000cf80de006109b900a0b79f00b1b79f00f9
:101aa000c2b79f00d3b79f000203be000002be0072
:101ab0000800be000a01be00090607000007780002
:101ac000efb097000c80400003c3b3000348470009
:101ad0008d06e9000fb897000000e90080bf9f0065
:101ae0002fb29700bfb297004fb39700dfb39700b4
:101af0000800be000a01be00f20507000205be0094
:101b00000004be000c00e0000d003400e00f5400a3
:101b1000e08f5c00e00f5d00e08f5d00daff3a00cf
:101b20000d00e000d8ff3c008fb897000100e000f6
:101b3000030034001fb197000218a300d2ff3a003f
:101b40000e00e00002003a00ffb197001340a10030
:101b50000c0078004f0778004f06be004f05be000e
:101b60004f04be004f01b100000006000200fa0061
:101b7000889fbe008a9fbe0000057800010478009f
:101b80000200780018019000a804900098007800e6
:101b9000b1bf9f00b80590000200e00002003500d0
:101ba0000110a100b1bf9f00ea815700a2002000f0
:101bb000890078003002be002003be0008007800d3
:101bc00097ff0700480190000201e9000001510061
:101bd000808045003fba9700890178000a007800ac
:101be0007e0107009a0090000188a30004003200e3
:101bf00098009000810f500001003d000100780026
:101c00004f05be004f04be000080fa000000060031
:101c1000fa874700889fbe008a9fbe008c9fbe0047
:101c20008e1f780080047800010478008205780017
:101c3000180190002805900018077800b80090005f
:101c40000200e000020035000e10a1000100370084
:101c50001200200070006700e0b79f00090032000a
:101c60003b02be002b03be00e00f5200e08f5a0083
:101c7000e00f5b00e08f5b00020032008a86e90023
:101c8000010037008a067800e8026700f5b79f0078
:101c9000010032008d06e9003b02be002b03be00ae
:101ca000e4af9f00f5af9f0086b79f0097b79f00f6
:101cb000480690000c06e9000c8040000048eb004c
:101cc000efb297007fb29700890378008104780013
:101cd000d8af9f00020478008bbf9f008a05780070
:101ce000034578002b0037000c06e9006fab970026
:101cf0006f006300e90f500002003c000003b000d9
:101d0000010037007005b0000a03fb001604b100a3
:101d1000f90f53000c003e00000378000650a000ad
:101d20001606b100f90f530007003e00b4b79f003c
:101d3000a5b79f00c7b79f0063040700cfb3970004
:101d4000afb297003fb297000c834400004b78007d
:101d50000804e9008d06e9006fa89700ffa8970026
:101d60000fb197009fb19700460020008301d1007a
:101d70000281d3008180d3000080d3000603e900f4
:101d8000faff3a00e0af9f00f1af9f0082b79f00db
:101d900093b79f00e10f56000f0034006fa8970023
:101da000ffa897000fb197009fb19700e00f500078
:101db000e08f5800e00f5900e08f5900caff3a0049
:101dc0000800e000c8ff3c000d00e0000200340005
:101dd0000e18a300c4ff3a0089007800f4b79f00f2
:101de000870478005fac97008a4178000b05780083
:101df0008fbd97000500e000120032003b02be00dc
:101e00002b03be00e4af9f00f5af9f0086b79f0095
:101e100097b79f00e00f5200e08f5a00e00f5b0081
:101e2000e08f5b00070032000c06e9000c804000e8
:101e3000034878000c06e9000c80400002c3b300a0
:101e400002487800ffb297000500e000040032006d
:101e50000c06e9000c80400002c2b3000248780082
:101e6000480190000201e9000c0151008c80400003
:101e70000e0278008a01780009007800d700070078
:101e8000990090000188a30004003200980090009f
:101e9000810f500001003d00010078004f077800dd
:101ea0004f06be004f05be004f04be00af01b1009b
:101eb000000006000200fa00881f78000004780085
:101ec000e2bf9f0064815700080078008502070088
:101ed000980090000148a300010032000080eb0050
:101ee0004f0478000080fa0000000600889fbe00c2
:101ef000000478004800900082047800808f54002d
:101f00000100360080047800090178005800900034
:101f10004103070058009000090040005004980059
:101f2000c800900089845000490498000048eb00e4
:101f30004f04be000000060010007800acfd370022
:101f4000900190000388a30001003200e7ff3700f2
:101f50000348a30001003a00f7ff07000000060055
:101f600084082000848f50001d0032000d003c00ca
:101f700014082000848f50002700320002003c002b
:101f8000040820000400370024082000848f50003b
:101f90003400320044082000848f500043003a008f
:101fa00036003700040a2000848f500027003200da
:101fb00004003c0004092000848f50003b003a00dc
:101fc00028003700020c2000828f50002f003200c2
:101fd000020f2000828f500034003a002b0037009f
:101fe0009380e9000200e0000500320081097800da
:101ff0001102fb00cfa2de00612bb90028003700e0
:1020000081097800114278000482fb008002eb0015
:102010006033b8002200370013027800e400520059
:102020000200e00005003200810978001102be00c4
:102030004fabde0086037800190037008109780075
:102040001102be006033b800150037009380e9002c
:102050008109780011027800cfa2de00612bb9005f
:102060000f00370093027800e88052008109780061
:102070003102be002103be00090037009380e90051
:102080000200e00002003200f1ff37009380e90017
:1020900081097800110278008002eb006033b800fb
:1020a0000498be000690be00100005000000050068
:1020b00044082000848f50002500320008003c00b6
:1020c00014082000848f50001400320024082000df
:1020d000848f500024003200040820000c003700d8
:1020e00004092000848f50001f00320004003c00cf
:1020f00084082000848f500024003a000e0037002e
:10210000040a2000848f500011003200040c2000cb
:10211000848f50001d003a000d0037009380e900c5
:10212000810978009100780001087800cf91de00e5
:102130008288be00140037009380e900810978008e
:102140009100780001087800824878000e0037007e
:102150009380e900810978009100780001087800f7
:1021600082087800080037009380e9008109780030
:1021700091007800010878006112b900612bb90064
:102180008498be008690be00100005000000050087
:10219000889fbe0000047800480090008204780008
:1021a000808f540001003600800478000901780017
:1021b0005800900098020700580090000900400065
:1021c00050049800c8009000898450004904980089
:1021d0000048eb004f04be0000000600f2874700f5
:1021e000889fbe008a9fbe008c9fbe008e1f780015
:1021f00080047800010578000204780083057800e7
:102200006107620002003a008b0f54000800390099
:10221000080178008a0078000900780048ff07006c
:102220008b0f540002003900880578001e0037002b
:10223000088655000c017800f00f560001003600aa
:1022400002012000010220007e8057007902070071
:102250008c0678000500370002012000fe80570040
:102260000900780036ff0700f0865600ef8f560011
:10227000f9ff3e004461de0000ff2f008091b900ad
:102280000c014100fe805700090078002cff070078
:102290000e00e00004003a00080178008a0078008f
:1022a0000900780026ff07000b0078004f07780030
:1022b0004f06be004f05be004f04be002f01b10007
:1022c00000000600000005000000050000000500f9
:1022d000000178000040eb008080fb00818040001e
:1022e000030c210081814100134278000404e000c6
:1022f00004003a00100c21008100400011407800d9
:102300000000060092017800934f520005003a0049
:10231000100c210081004000114078000309e80002
:10232000010037000040e800ea4f5000eaff3600a5
:1023300000000600f6874700889fbe008a9fbe0007
:102340008c9fbe008e1f7800000578000104780085
:1023500083057800040678000000eb00c0b79f00fa
:102360008080eb00d1b79f00e0b79f00f2b79f00dd
:102370000008200080bf9f009800780001007800ce
:102380008004eb00010037008904e8003041780048
:102390000204e0000300320053c2b300834f510037
:1023a000f9ff3a000900e00004003200090178005a
:1023b0000a007800e2fe0700188c44001807780035
:1023c00050c2b3009e4f10003f013a000e07e800d4
:1023d0000e0c780010003700cfb097000100a0006d
:1023e0000b003700cfb097000110a00008003700a5
:1023f000cfb097000120a00005003700cfb09700b4
:102400000130a00002003700cfb097000140a000cb
:10241000c1b79f00000ce8001800780090407800d9
:10242000b2c2b30082cf5000f1ff320007003c007f
:1024300002c2b30082cf5000f0ff320032c2b300bc
:1024400082cf500007003a00efff3700d2c2b3003e
:1024500082cf5000e0ff320002c3b30082cf5000b1
:10246000e0ff3200a2c2b30082cf50000d003a005c
:10247000000ce8001c80e900000e780010007800d5
:10248000e0b79f000000e0000f003d00cfb09700d4
:102490000100a200c1b79f000000ea00e0b79f0062
:1024a0000900370084010700e0b79f0001003700f2
:1024b000000ce800180078009000fb000103b10058
:1024c000e98f5000faff36004fb097000008a300d4
:1024d000020032000010a100c0b79f001800780071
:1024e000e1c2b30090cf100016003a008000eb006c
:1024f000d1b79f000000e800000c7800a1c2b30033
:1025000090cf100006003a00000ce8001c80e900a3
:10251000000e780010007800d0b79f000900370047
:1025200065010700d0b79f0001003700000ce800ec
:10253000180078009000fb000103b100e98f500003
:10254000faff36000800780061ff07008046780037
:10255000180078001000fb005402070091062000cc
:10256000810f50003800320012003c00410620006c
:10257000810f5000340032000a003c001106200098
:10258000810f50002000320031062000810f5000e2
:10259000a000320051022000810f5000bc003a0020
:1025a000b400370071062000810f5000b8003c00d5
:1025b0008800370001072000810f50005c003200c6
:1025c00007003c00e1062000810f50007a00320035
:1025d000f1062000810f5000ad003a0039003700ad
:1025e00051072000810f5000270032008107200092
:1025f000810f50004200320031072000810f50004f
:10260000a3003a008f0037008d80fb000c0178009a
:1026100000fe2f000f004000360207000000e0001f
:10262000a800320018007800000ce8009041780003
:1026300002fe2f000f014100f88057000a007800c9
:1026400021ff07000e0037008d80fb008c01780011
:102650001200200000fe2f000f00400040fe070087
:102660000000e00097003200180ce80002fe2f0086
:102670000f014100f88057000a0078002dfc070088
:1026800080844400900037008d80fb008c0178002e
:102690000001eb0000fe2f000f00400030fe07009d
:1026a0000000e00087003200180ce80002fe2f0056
:1026b0000f014100f88057000a0078002bfd070049
:1026c000efff37008d80fb008c0178000001eb00ec
:1026d00000fe2f000f00400021fe07000000e00078
:1026e00078003200180ce80002fe2f000f014100b4
:1026f000f88057000a00780068fc0700e0ff370008
:102700008d80fb008c0178000001eb0000fe2f00a3
:102710000f00400012fe07000000e00069003200d8
:1027200018007800000ce800904178001c00370089
:102730008c0178000001eb00010f200000fe2f004b
:102740000f00400006fe07000000e0005d003200c0
:10275000180ce8000fb097009fb097002fb19700ba
:10276000bfb19700e00f5000e08f5800e00f590014
:10277000e08f590009003a00cfb597006fb4970079
:10278000800b2100a70107000b0278008801780068
:1027900000017800810b21004700370083c7b30098
:1027a00002fe2f000f014100f88057000a00780058
:1027b00017fd0700b2ff37000b8144008d80fb003e
:1027c0008c01780000fe2f000f00400038fe07004b
:1027d0003c0037008d80fb000c01780000fe2f00cc
:1027e0000f004000c30107000000e0003500320088
:1027f00018007800000ce8009041780002fe2f00dd
:102800000f014100f88057000a007800aefe070073
:102810009bff370000c8b30080cf560029003a0064
:10282000180ce8001c80e900000e780010407800c9
:10283000e0df9f0013002000e2fd2f000f014100a8
:102840000800370000c8b30080cf56001d003a00d2
:10285000180ce8001c80e900000e78008001eb00f5
:1028600010017800f88057000a00780042fc070049
:1028700083ff370000c8b30080cf560011003a0034
:10288000180ce8004fb29700efb19700080037002e
:102890000e0c78000000eb00c0b79f00e0b79f006f
:1028a0000080eb00d0b79f000002eb0084017800ad
:1028b00012002000e10b21000a00780047fe07000b
:1028c0006fff3700180ce800090078004f07780008
:1028d0004f06be004f05be004f04be006f01b100a1
:1028e000000006008200fa00889fbe008a1f780060
:1028f0000005780082047800c13f9f000004eb00cf
:10290000100037000902780088017800a2f72f0034
:102910000f01410081f72f008f8040000a007800ee
:1029200084fe070008004000880f500004003d00ae
:10293000b0042000e08888000084eb000400370029
:10294000000478004f3897001004e000edff3a00d3
:10295000080078004f0578004f04be000080fa00a0
:1029600000000600889fbe000004be000000eb00cf
:102970000800e00018003200180090000058a30082
:102980000d003200d800900068009000808f500049
:1029900009003600b80990000001eb0082007800c1
:1029a0000800780003000100d80090000080eb00d0
:1029b0000100e000080032000000eb00200c98004d
:1029c00060049800500498000900e0000200320002
:1029d00018007800fdfa07004f04be000000060052
:1029e000889fbe000004be000000eb000800e0006d
:1029f00025003200180090000058a300110032009a
:102a0000d800900068009000808f500009003600c8
:102a1000b80990000001eb008200780008007800ff
:102a200003000100d80090000080eb000100e000ee
:102a3000150032000000eb00200c980060049800a4
:102a400050049800780a900008109000800f5200ff
:102a5000060031000002520011002000cfa2de006b
:102a6000612bb90018007800650007000000eb003a
:102a700000149800700c98000900e0000200320079
:102a800018007800d1fa07004f04be0000000600cd
:102a9000800078001000200002022000828f500089
:102aa00004003200e9805000e48f5000010036003d
:102ab0000000eb0000000600889fbe008a1f78001f
:102ac000000578000a047800984478000805e800ba
:102ad0000900fb00eeff07000000e000f9ff3a00ec
:102ae000b0c2b30080cf540005003200d0c2b300a2
:102af0008000eb0080cf540005003a000200370050
:102b00008000eb0001003700110020000804e800fd
:102b10000000eb0003003700ea00b900020050009b
:102b20000003b0003801fb0003fd2f00828141004b
:102b3000e98f5100f8ff36000100e00001003a0083
:102b40000000ea004f0578004f04be0000000600b8
:102b5000889fbe008a1f78008004780001057800f5
:102b600009007800af000700000478008a017800af
:102b70000801780011002000090078000a00070011
:102b8000800078000080eb00888f500001003a0040
:102b90000000eb004f0578004f04be000000060067
:102ba0001000780092fa3700889fbe008a1f7800d4
:102bb000810478000204780089c5b9000900e000aa
:102bc00001003a000004eb000a0178008000780060
:102bd00003007800d8fc0700800078008a8f50003e
:102be00003003200050009008980d8000004780045
:102bf000080078004f0578004f04be000000060072
:102c0000a0fd2f00f1ff2f009e0007004f89de007e
:102c10008201780000000600800178000200370081
:102c2000b15978000201e9000200e000fcff3a001f
:102c300000000600889fbe008a9fbe0080047800c6
:102c40000200e0005b00320001407800814c780017
:102c500082814400f1f99f00e20f510055003600d7
:102c600091449800a1449800e1f99f00d1f99f0098
:102c7000e60f51004f003600b1449800c1f99f00a3
:102c8000e80f51004b0036000905ea0063056500b6
:102c90000a8444000a055100c1ff2f0001056500a8
:102ca0000080fb008000eb001210200013102000b9
:102cb000e5000700008cbe000a01440060b99f00d7
:102cc00071b99f00e80f55003a00360020049800c3
:102cd00031049800400498005104980020b99f00e6
:102ce00031b99f0040b99f0051b99f00f80f5500be
:102cf000300036006004980071049800000c9800c1
:102d0000110c9800200c9800310c9800400c980091
:102d1000510c980020b19f0031b19f0040b19f003d
:102d200051b19f0060b19f0071b19f0000b99f0039
:102d300011b99f006401640078014100020444005d
:102d4000020555006011b8000203be000002be007b
:102d50000403be006022b80000007200818072008f
:102d6000020173008381730010003700009cbe00d5
:102d70000294be0040049800510498006204980038
:102d800073049800000c9800110c9800220c980015
:102d9000330c9800400c9800510c9800620c98007d
:102da000730c98000a02b1000802b000ff0f550032
:102db000eeff3e00090078004f05be004f04be0044
:102dc000000006000200fa0081017800e0ff9f0089
:102dd000930090000188a30005003200d30090000a
:102de000805878000080fb00d10198000a0037006d
:102df000120020008f80e900030078004efc0700dd
:102e0000800078000080eb000100e000020032004a
:102e1000eff897000180fb000080fa000000060038
:102e2000e8ff370080007800040037003104e0003c
:102e300002003a0000005100000006000101780085
:102e40000108a300f9ff3a00810178003101780000
:102e5000f4ef2f00020242000281ea000201620048
:102e60000408280004016100f7ff320083007800a5
:102e7000010178003104e000fdff3a00000051003c
:102e80000000060002002f00f3ff2f00820f500009
:102e9000838f5800040036000000ea00e0888800b4
:102ea0000080eb008080eb0000000600f1fb2f00ab
:102eb00080804000f98f500001003e000050a000cb
:102ec00000000600f9ff3700f1f92f008080400074
:102ed000f98f500001003e00f005b200000006002e
:102ee000f9ff3700000006000efa0700fdff07009b
:102ef000fcff3700881f78000004780000082000dd
:102f0000808f50001700350010082000808f50007f
:102f10000b00340030082000808f500011003a0070
:102f20009200780068805000000978003002be00ee
:102f30002003be00049cbe000694be0007003700bc
:102f40009202780064805200000978001000be00f0
:102f500009000700009cbe000294be001000200083
:102f6000010037000000eb004f047800000006006d
:102f700000c0da0000000600810378001d00070091
:102f80000001be006000b8000478a30013003a00fe
:102f90006220e10015003e000d0039008301d100e0
:102fa0000281d3008180d3008301d1000281d3004c
:102fb0008180d3008301d1000281d3008180d300be
:102fc0000538b000c42add00f300b200838172002e
:102fd00007f0a70003f0a0000000060083ff270011
:102fe000020020006110b900f9ff370003ff27003d
:102ff000f7ff3700c70ade00f107b200f50fb20095
:1030000008003200e1cf4200020032000170a0004f
:1030100024000500810f7000010032000408050043
:1030200044000500810f700002003a001400050002
:103030008502e9000000400081c04800fcff3b0021
:103040000170a00024000500020ab900001bb900ad
:103050000200b80081004200810043000000060029
:10306000889fbe008a9fbe0030044200b0844a00a0
:1030700030054b0090854b006000b1000898be0001
:103080000a90be000440e10005c8e10006d0e1005e
:1030900007d8e10002003100680040001008e80095
:1030a0004f05be004f04be0000000600889fbe0012
:1030b0008a9fbe003004be002005be0004185400e4
:1030c00005985c0006185d0007985d00110020005f
:1030d0000440e10005c8e10006d0e10007d8e100a6
:1030e000010039008000eb00108810004f05be0081
:1030f0004f04be00000006001200fa00889fbe00c8
:103100008a9fbe008c9fbe00e0b79f00f1b79f0072
:1031100082bf9f0093bf9f000605be000404be004f
:103120000000eb00d0b79f00c0b79f00b0b79f0072
:10313000a0b79f0090b79f00000678005fb197008e
:10314000cfb09700820141003fb097000200e0003d
:1031500004003d00370007007e805700c0ff0700d5
:1031600003003700330007007e805700cfff0700c1
:10317000dfb697000d00e0000c0035006fb297003d
:10318000ffb297000fbb97009fbb97001000200075
:10319000010020006011b8000002720081827200fc
:1031a00002037300838373001b0007000c06e80012
:1031b00001042000810f5600e0ff3a000d00e000fe
:1031c00004003d000802be000a03be007e805700d6
:1031d000a3ff07005fa897000000e00005003a0089
:1031e0001fb29700afb297003fb39700cfb39700dd
:1031f000090007006fb09700ffb097000fb9970064
:103200009fb997004f06be004f05be004f04be0099
:103210000080fa0000000600010007000000060020
:10322000a4b79f00b5b79f00c6b79f00d7b79f0050
:10323000000006004f09de0082817100b3b79f00d5
:103240004f01de008180400082807000a1b79f00a6
:103250008fb097004f09de000000400002007000b0
:1032600090b79f007fa897004f01de00818040004b
:103270008280700081b79f000d0007004f3ade008a
:103280000000400004007000f0af9f00080007003d
:103290000402420085824a0006034b0087834b00ec
:1032a000dfff07000802be000a03be0000000600a0
:1032b0002fb29700bfb297004fb39700dfb39700cc
:1032c00000000600881f780018002000881f780082
:1032d00089ff07008f87e9004f047800000006008f
:1032e000801feb0084ff07008f87e90000000600c5
:1032f000889fbe008a9fbe00e00f5000e08f5800fc
:10330000e00f5900e08f59000c003d006044b80008
:103310006055b8000000540081805c0002015d002f
:1033200083815d00180020001500070008003d00a3
:10333000180007000004eb00050037000004eb0054
:103340000f00070002003d001200070018002000d7
:10335000dcff07000800e000060032006022b80031
:103360006033b8000000520081805a0002015b0007
:1033700083815b004f05be004f04be0000000600c5
:10338000e00f5200e08f5a00e00f5b00e08f5b001f
:10339000000006006044b8006055b8000402540004
:1033a00085825c0006035d0087835d0000000600e7
:1033b000889fbe008a9fbe008c1f7800e00f5000df
:1033c000e08f5800e00f5900e08f59000d003d00dc
:1033d0006044b8006055b8000000540081805c0073
:1033e00002015d0083815d001c0020000820e100d7
:1033f00009a8e1000ab0e1000bb8e1000d003d00b2
:10340000080037000006eb00e00f5200e08f5a0082
:10341000e00f5b00e08f5b0006003d006044b800f9
:103420006055b8000402540085825c0006035d000c
:1034300087835d00aaff07000c00e0000600320051
:103440006022b8006033b8000000520081805a004a
:1034500002015b0083815b004f0678004f05be00d0
:083460004f04be00000006004d
:020000040000fa
:10346800d82d0000622f00002c1d00001c1d00003c
:103478003c1d0000481d0000541d0000601d000098
:10348800041c0000a61d0000ec1d0000821e0000a8
:10349800c81e0000681f00004e2000001621000012
:1034a8007e210000b8210000f22100002c2200003b
:1034b80066220000ac220000f22200004c2300002b
:1034c800922300009e240000b6260000aa250000d2
:1034d80000000000000000000000000000000000e4
:1034e8000000000000000000ca1b0000901b000044
:1034f800d42900001a2a0000602a00000a290000c6
:10350800442900009e2d0000a62a0000642b00001c
:10351800222c0000e02c0000a23000000000000077
:10352800bc30000000000000bc3d00000e3e000062
:10353800d83d000000000000003a0000183a0000e2
:10354800303a0000463a0000000000002a3c000023
:10355800543d0000723a00005e3b00003a3900001a
:10356800423900004a390000523900005a39000037
:10357800623900007e390000a8390000c639000011
:10358800ce390000d6390000de390000883d000041
:10359800a03d0000989a0000283e0000883e0000e8
:1035a800ae3e0000d83e0000043f00001a3f000075
:1035b8004c3f00007c3f0000843f000000000000fa
:1035c800000000008c3f0000b23f0000ca3f00002e
:1035d800e23f0000f83f000014400000a640000051
:1035e80016410000244100003c4100005441000005
:1035f8006c410000844100009c410000b44100007f
:10360800144200003a420000644200009042000068
:10361800a6420000d8420000084300001043000002
:103628000000000000000000184300003e430000b6
:10363800564300006e43000084430000a04300008e
:1036480032440000a2440000b0440000c844000016
:10365800e0440000f8440000104500002845000040
:103668005374000061720000742e00002e2e0000ba
:103678002e2000000d0000007264000020250000cc
:10368800780d00000a000000726400002025000088
:103698007820000025780000202500007820000010
:1036a8000d0a0000000000008c450000be45000027
:1036b800ec450000f84500000446000040450000c5
:1036c800664500002e4600004c4600000000000041
:1036d800704c00007e4c0000444c00004c4c000034
:1036e800544c000000000000f64c0000044d00009f
:1036f800cc4c0000d44c0000dc4c00000000000062
:10370800b44c0000c24c0000884c0000904c0000f3
:08371800984c000000000000c5
:020000040000fa
:103720000200fa00000f78001e007800e30f50003e
:1037300010003200e30f500005003e00e10f500082
:1037400008003200e20f5000080032000f0037007e
:10375000e40f500009003200e80f50000900320069
:103760000a0037002be3a8000800370061e3a80037
:103770000600370097e3a80004003700cde3a80057
:1037800002003700a5e4a800000000000080fa0055
:10379000000006000200fa00000f78001e0078000a
:1037a000e30f500010003200e30f500005003e0010
:1037b000e10f500008003200e20f50000800320014
:1037c0000f003700e40f500009003200e80f5000ee
:1037d000090032000a0037002be3a9000800370077
:1037e00061e3a9000600370097e3a9000400370051
:1037f000cde3a90002003700a5e4a9000000000005
:103800000080fa00000006000400fa00000f7800b3
:10381000110798001e007800e30f50003c003200b2
:10382000e30f500005003e00e10f50000800320099
:10383000e20f50001e0032007d003700e40f500000
:103840004b003200e80f5000610032007800370072
:103850001e00900000407800674060000080fb0080
:10386000670060005219800081ff2f008100610015
:1038700001007000501988001e009000e20f5000f7
:1038800006003a0091198000f0fc2f0000806000d3
:103890000040a00090198800650037009119800051
:1038a000f0fc2f0000806000901988006000370055
:1038b0001e00900000407800674060000080fb0020
:1038c00067006000021b800081ff2f008100610003
:1038d00001007000001b88001e009000e20f5000e5
:1038e00006003a00411b8000f0fc2f0000806000c1
:1038f0000040a000401b88004d003700411b8000a5
:10390000f0fc2f0000806000401b8800480037005a
:103910001e00900000407800674060000080fb00bf
:1039200067006000b21c800081ff2f0081006100f1
:1039300001007000b01c88001e009000e20f5000d3
:1039400006003a00f11c8000f0fc2f0000806000af
:103950000040a000f01c880035003700f11c8000fa
:10396000f0fc2f0000806000f01c88003000370061
:103970001e00900000407800674060000080fb005f
:1039800067006000621e800081ff2f0081006100df
:1039900001007000601e88001e009000e20f5000c1
:1039a00006003a00a11e8000f0fc2f00008060009d
:1039b0000040a000a01e88001d003700a11e80004e
:1039c000f0fc2f0000806000a01e88001800370067
:1039d0001e00900000407800674060000080fb00ff
:1039e000670060002225800081ff2f0081006100b8
:1039f00001007000202588001e009000e20f50009a
:103a000006003a0061258000f0fc2f000080600075
:103a10000040a00060258800050037006125800077
:103a2000f0fc2f000080600060258800000000008e
:103a30000080fa00000006000000fa002be3a80056
:103a400061e3a80097e3a800cde3a800a5e4a800df
:103a50000080fa00000006000000fa002be3a90035
:103a600061e3a90097e3a900cde3a900a5e4a900bb
:103a70000080fa00000006000200fa00000f780043
:103a80009e007800511888000080fa0000000600af
:103a90000200fa00000f78009e00780041188800ac
:103aa0000080fa00000006000200fa00000f780013
:103ab0009e007800311888000080fa00000006009f
:103ac0000400fa00000f7800110798001e0078002b
:103ad000e30f500012003200e30f500005003e00db
:103ae000e10f500008003200e20f500009003200e0
:103af00014003700e40f50000c003200e80f5000b3
:103b00000d0032000f0037009e009000911a8800cf
:103b10000c0037009e009000411c8800090037000f
:103b20009e009000f11d8800060037009e00900066
:103b3000a11f8800030037009e00900061268800c6
:103b4000000000000080fa00000006000400fa00f7
:103b5000000f7800110798001e007800e30f500056
:103b600012003200e30f500005003e00e10f50004c
:103b700008003200e20f5000090032001400370044
:103b8000e40f50000c003200e80f50000d0032002e
:103b90000f0037009e009000711a88000c0037005b
:103ba0009e009000211c8800090037009e009000b4
:103bb000d11d8800060037009e009000811f8800fc
:103bc000030037009e00900041268800000000009e
:103bd0000080fa00000006000400fa00000f7800e0
:103be000110798001e007800e30f500022003200f9
:103bf000e30f500005003e00e10f500008003200c6
:103c0000e20f5000110032003c003700e40f50007a
:103c100024003200e80f50002d003200370037003a
:103c20001e00900000407800614060000080fb00b2
:103c3000610060004d00dd006119800001d0a1002d
:103c400001007000601988002c0037001e009000f1
:103c500000407800614060000080fb00610060006f
:103c60004d00dd00111b800001d0a100010070009b
:103c7000101b8800210037001e00900000407800d3
:103c8000614060000080fb00610060004d00dd00cd
:103c9000c11c800001d0a10001007000c01c880080
:103ca000160037001e009000004078006140600060
:103cb0000080fb00610060004d00dd00711e80008f
:103cc00001d0a10001007000701e88000b003700b9
:103cd0001e00900000407800614060000080fb0002
:103ce000610060004d00dd003125800001d0a100a1
:103cf0000100700030258800000000000080fa00fc
:103d0000000006000400fa00000f78001107980078
:103d10001e007800e30f500012003200e30f500045
:103d200005003e00e10f500008003200e20f500095
:103d30000900320014003700e40f50000c0032007c
:103d4000e80f50000d0032000f0037009e00900079
:103d5000611a88000c0037009e009000111c88003a
:103d6000090037009e009000c11d88000600370042
:103d70009e009000711f8800030037009e00900095
:103d800031268800000000000080fa0000000600d4
:103d90000400fa00000f7800110798001e00780058
:103da000e30f500024003200e30f500005003e00f6
:103db000e10f500008003200e20f50001200320004
:103dc00041003700e40f500027003200e80f500098
:103dd000310032003c0037001e00900000407800a7
:103de000634060000080fb00630060004a00dd006b
:103df00082198000f13f2f008100610001007000f6
:103e000080198800300037001e00900000407800c4
:103e1000634060000080fb00630060004a00dd003a
:103e2000321b8000f13f2f00810061000100700013
:103e3000301b8800240037001e00900000407800ee
:103e4000634060000080fb00630060004a00dd000a
:103e5000e21c8000f13f2f00810061000100700032
:103e6000e01c8800180037001e0090000040780019
:103e7000634060000080fb00630060004a00dd00da
:103e8000921e8000f13f2f00810061000100700050
:103e9000901e88000c0037001e0090000040780043
:103ea000634060000080fb00630060004a00dd00aa
:103eb00052258000f13f2f00810061000100700059
:103ec00050258800000000000080fa000000060075
:103ed0000400fa00000f7800214798001e007800c7
:103ee000e30f500032003200e30f500005003e00a7
:103ef000e10f500008003200e20f500019003200bc
:103f000064003700e40f50003c003200e80f50001e
:103f10004d0032005f00370080198000ba800a002f
:103f200000000000e14060002e4090000080fb0097
:103f3000000040000040780000c070006340600056
:103f40000080fb00630060004a00dd0082198000f1
:103f5000f13f2f008100610001007000801988008e
:103f60004c003700301b8000ba800a0000000000bf
:103f7000e14060002e4090000080fb000000400007
:103f80000040780000c07000634060000080fb00cb
:103f9000630060004a00dd00321b8000f13f2f000b
:103fa0008100610001007000301b8800390037007b
:103fb000e01c8000ba800a0000000000e1406000c0
:103fc0002e4090000080fb00000040000040780080
:103fd00000c07000634060000080fb006300600070
:103fe0004a00dd00e21c8000f13f2f0081006100eb
:103ff00001007000e01c880026003700901e800041
:10400000ba800a0000000000e14060002e409000ed
:104010000080fb00000040000040780000c07000fd
:10402000634060000080fb00630060004a00dd0028
:10403000921e8000f13f2f0081006100010070009e
:10404000901e88001300370050258000ba800a00b7
:1040500000000000e14060002e4090000080fb0066
:10406000000040000040780000c070006340600025
:104070000080fb00630060004a00dd0052258000e4
:10408000f13f2f0081006100010070005025880081
:10409000000000000080fa00000006000400fa00a2
:1040a000000f7800214798001e007800e30f5000b1
:1040b0002c003200e30f500005003e00e10f5000dd
:1040c00008003200e20f50001600320055003700a1
:1040d000e40f500033003200e80f5000410032007e
:1040e0005000370080198000ba800a0000000000ec
:1040f000e24060002e40900000c07000634060000d
:104100000080fb00630060004a00dd00821980002f
:10411000f13f2f00810061000100700080198800cc
:1041200040003700301b8000ba800a000000000009
:10413000e24060002e40900000c0700063406000cc
:104140000080fb00630060004a00dd00321b80003d
:10415000f13f2f008100610001007000301b8800da
:1041600030003700e01c8000ba800a000000000028
:10417000e24060002e40900000c07000634060008c
:104180000080fb00630060004a00dd00e21c80004c
:10419000f13f2f008100610001007000e01c8800e9
:1041a00020003700901e8000ba800a000000000046
:1041b000e24060002e40900000c07000634060004c
:1041c0000080fb00630060004a00dd00921e80005a
:1041d000f13f2f008100610001007000901e8800f7
:1041e0001000370050258000ba800a00000000004f
:1041f000e24060002e40900000c07000634060000c
:104200000080fb00630060004a00dd005225800052
:10421000f13f2f00810061000100700050258800ef
:10422000000000000080fa00000006000400fa0010
:10423000100798000000eb00000f78001e009000af
:10424000e30f500018003200e30f500005003e005d
:10425000e10f500008003200e20f50000c00320065
:1042600023003700e40f500015003200e80f500023
:10427000190032001e00370080198000ba800a0041
:10428000000000000080fb00000f780018003700dd
:10429000301b8000ba800a00000000000080fb0094
:1042a000000f780012003700e01c8000ba800a007e
:1042b000000000000080fb00000f78000c003700b9
:1042c000901e8000ba800a00000000000080fb0001
:1042d000000f78000600370050258000ba800a00e1
:1042e000000000000080fb00000f780000000000cc
:1042f0001e0078000080fa00000006000200fa00ac
:10430000000f78001e007800e30f5000100032000c
:10431000e30f500005003e00e10f5000080032009e
:10432000e20f5000080032000f003700e40f500089
:1043300009003200e80f5000090032000a0037007f
:1043400031a3a8000800370067a3a80006003700c3
:104350009da3a80004003700d3a3a80002003700e3
:10436000aba4a800000000000080fa0000000600d6
:104370000200fa00000f78001e007800e30f5000e2
:1043800010003200e30f500005003e00e10f500026
:1043900008003200e20f5000080032000f00370022
:1043a000e40f500009003200e80f5000090032000d
:1043b0000a0037003183a800080037006783a8008f
:1043c000060037009d83a80004003700d383a800af
:1043d00002003700ab84a800000000000080fa0053
:1043e000000006000200fa00000f78001e007800ae
:1043f000e30f500010003200e30f500005003e00b4
:10440000e10f500008003200e20f500008003200b7
:104410000f003700e40f500009003200e80f500091
:10442000090032000a00370031a3a9000800370054
:1044300067a3a900060037009da3a9000400370068
:10444000d3a3a90002003700aba4a900000000001c
:104450000080fa00000006000200fa00000f780059
:104460001e007800e30f500010003200e30f5000f0
:1044700005003e00e10f500008003200e20f50003e
:10448000080032000f003700e40f5000090032002e
:10449000e80f5000090032000a0037003183a900fc
:1044a000080037006783a900060037009d83a90034
:1044b00004003700d383a90002003700ab84a900b1
:1044c000000000000080fa00000006000400fa006e
:1044d000000f7800110798001e007800e30f5000cd
:1044e00012003200e30f500005003e00e10f5000c3
:1044f00008003200e20f50000900320014003700bb
:10450000e40f50000c003200e80f50000d003200a4
:104510000f0037009e009000d11a88000c00370071
:104520009e009000811c8800090037009e009000ca
:10453000311e8800060037009e009000e11f8800b1
:10454000030037009e009000a126880000000000b4
:104550000080fa00000006000400fa00000f780056
:10456000110798001e007800e30f5000120032007f
:10457000e30f500005003e00e10f5000080032003c
:10458000e20f50000900320014003700e40f500021
:104590000c003200e80f50000d0032000f00370011
:1045a0009e009000e11a88000c0037009e009000e9
:1045b000911c8800090037009e009000411e880071
:1045c000060037009e009000f11f880003003700ae
:1045d0009e009000b1268800000000000080fa00d4
:1045e000000006000400fa00000f78001107980090
:1045f0001e007800e30f500016003200e30f500059
:1046000005003e00e10f500008003200e20f5000ac
:104610000b0032001e003700e40f50001200320081
:10462000e80f500015003200190037009e0090007e
:10463000d11a88009e009000e11a8800140037000b
:104640009e009000811c88009e009000911c8800b4
:104650000f0037009e009000311e88009e009000e1
:10466000411e88000a0037009e009000e11f88006c
:104670009e009000f11f8800050037009e0090000a
:10468000a12688009e009000b1268800000000004e
:104690000080fa00000006000400fa00000f780015
:1046a000110798001e007800e30f5000120032003e
:1046b000e30f500005003e00e10f500008003200fb
:1046c000e20f50000900320014003700e40f5000e0
:1046d0000c003200e80f50000d0032000f003700d0
:1046e0009e009000a11a88000c0037009e009000e8
:1046f000511c8800090037009e009000011e8800b0
:10470000060037009e009000b11f880003003700ac
:104710009e00900071268800000000000080fa00d2
:10472000000006000400fa00000f7800110798004e
:104730001e007800e30f50003a003200e30f5000f3
:1047400005003e00e10f500008003200e20f50006b
:104750001d00320077003700e40f5000480032009f
:10476000e80f50005d003200720037001e0090001c
:10477000e20f50000c003200e20f500003003e0038
:10478000e10f5000060032000d003700e30f50002b
:1047900007003200e40f5000070032000800370025
:1047a00037e3a8000700370037c3a800050037002b
:1047b00037a3a800030037003783a80001003700a3
:1047c000000000005b0037001e009000e20f500068
:1047d0000c003200e20f500003003e00e10f5000d9
:1047e000060032000d003700e30f500007003200d2
:1047f000e40f500007003200080037006de3a80006
:10480000070037006dc3a800050037006da3a8009e
:10481000030037006d83a80001003700000000008e
:10482000440037001e009000e20f50000c003200e0
:10483000e20f500003003e00e10f5000060032007e
:104840000d003700e30f500007003200e40f500066
:104850000700320008003700a3e3a8000700370074
:10486000a3c3a80005003700a3a3a80003003700d6
:10487000a383a80001003700000000002d003700ce
:104880001e009000e20f50000c003200e20f5000ba
:1048900003003e00e10f5000060032000d0037001b
:1048a000e30f500007003200e40f50000700320011
:1048b00008003700d9e3a80007003700d9c3a800d3
:1048c00005003700d9a3a80003003700d983a8004a
:1048d0000100370000000000160037001e009000a5
:1048e000e20f50000c003200e20f500003003e00c7
:1048f000e10f5000060032000d003700e30f5000ba
:1049000007003200e40f50000700320008003700b3
:10491000b1e4a80006003700b1c4a80004003700c5
:10492000b1a4a80002003700b184a8000000000074
:10493000000000000080fa00000006000400fa00f9
:10494000000f7800110798001e007800e30f500058
:104950003a003200e30f500005003e00e10f500026
:1049600008003200e20f50001d00320077003700cf
:10497000e40f500048003200e80f50005d003200a4
:10498000720037001e009000e20f50000c00320051
:10499000e20f500003003e00e10f5000060032001d
:1049a0000d003700e30f500007003200e40f500005
:1049b000070032000800370037e3a900070037007e
:1049c00037c3a9000500370037a3a900030037004b
:1049d0003783a90001003700000000005b003700aa
:1049e0001e009000e20f50000c003200e20f500059
:1049f00003003e00e10f5000060032000d003700ba
:104a0000e30f500007003200e40f500007003200af
:104a1000080037006de3a900070037006dc3a90047
:104a2000050037006da3a900030037006d83a900be
:104a30000100370000000000440037001e00900015
:104a4000e20f50000c003200e20f500003003e0065
:104a5000e10f5000060032000d003700e30f500058
:104a600007003200e40f5000070032000800370052
:104a7000a3e3a90007003700a3c3a900050037007e
:104a8000a3a3a90003003700a383a90001003700f6
:104a9000000000002d0037001e009000e20f5000c3
:104aa0000c003200e20f500003003e00e10f500006
:104ab000060032000d003700e30f500007003200ff
:104ac000e40f50000700320008003700d9e3a900c6
:104ad00007003700d9c3a90005003700d9a3a900f2
:104ae00003003700d983a90001003700000000004f
:104af000160037001e009000e20f50000c0032003c
:104b0000e20f500003003e00e10f500006003200ab
:104b10000d003700e30f500007003200e40f500093
:104b20000700320008003700b1e4a9000600370092
:104b3000b1c4a90004003700b1a4a90002003700e5
:104b4000b184a90000000000000000000080fa000d
:104b5000000006000400fa00000f7800110798001a
:104b60001e007800e30f50003a003200e30f5000bf
:104b700005003e00e10f500008003200e20f500037
:104b80001d00320077003700e40f5000480032006b
:104b9000e80f50005d003200720037001e009000e8
:104ba000e20f50000c003200e20f500003003e0004
:104bb000e10f5000060032000d003700e30f5000f7
:104bc00007003200e40f50000700320008003700f1
:104bd0002fc3a900070037002fa3a9000500370045
:104be0002f83a900030037002fe3a900010037003d
:104bf000000000005b0037001e009000e20f500034
:104c00000c003200e20f500003003e00e10f5000a4
:104c1000060032000d003700e30f5000070032009d
:104c2000e40f5000070032000800370065c3a900f8
:104c30000700370065a3a900050037006583a900b8
:104c40000300370065e3a900010037000000000001
:104c5000440037001e009000e20f50000c003200ac
:104c6000e20f500003003e00e10f5000060032004a
:104c70000d003700e30f500007003200e40f500032
:104c800007003200080037009bc3a9000700370067
:104c90009ba3a900050037009b83a90003003700f0
:104ca0009be3a90001003700000000002d00370041
:104cb0001e009000e20f50000c003200e20f500086
:104cc00003003e00e10f5000060032000d003700e7
:104cd000e30f500007003200e40f500007003200dd
:104ce00008003700d1c3a90007003700d1a3a900ed
:104cf00005003700d183a90003003700d1e3a900e4
:104d00000100370000000000160037001e00900070
:104d1000e20f50000c003200e20f500003003e0092
:104d2000e10f5000060032000d003700e30f500085
:104d300007003200e40f500007003200080037007f
:104d4000a9c4a90006003700a9a4a90004003700df
:104d5000a984a90002003700a9e4a900000000000e
:104d6000000000000080fa00000006000600fa00c3
:104d700010079800210798000040eb00004f7800d2
:104d80001e009000e30f50007a003200e30f500045
:104d900005003e00e10f500008003200e20f500015
:104da0003d00320018013700e40f5000a800320027
:104db000e80f5000dd003200130137002e00900094
:104dc000e20f500014003200e20f500003003e00da
:104dd000e10f5000060032002d003700e30f5000b5
:104de00017003200e40f50001f0032002800370087
:104df00070198000ee800a00000000000080fb00b7
:104e000000f0a7000000ea000000ea004f00de000a
:104e1000004f78001f00370070198000dd800a0005
:104e2000000000000080fb0000f0a7000000ea0086
:104e30000000ea004f00de00004f78001500370048
:104e400070198000cc800a00000000000080fb0088
:104e500000f0a7000000ea000000ea004f00de00ba
:104e6000004f78000b00370070198000ff800a00a7
:104e7000000000000080fb0000f0a7000000ea0036
:104e80000000ea004f00de00004f7800010037000c
:104e900000000000dc0037002e009000e20f500000
:104ea00014003200e20f500003003e00e10f5000fa
:104eb000060032002d003700e30f500017003200cb
:104ec000e40f50001f00320028003700201b800034
:104ed000ee800a00000000000080fb0000f0a70048
:104ee0000000ea000000ea004f00de00004f7800fa
:104ef0001f003700201b8000dd800a00000000003a
:104f00000080fb0000f0a7000000ea000000ea00bb
:104f10004f00de00004f780015003700201b800096
:104f2000cc800a00000000000080fb0000f0a70019
:104f30000000ea000000ea004f00de00004f7800a9
:104f40000b003700201b8000ff800a0000000000db
:104f50000080fb0000f0a7000000ea000000ea006b
:104f60004f00de00004f7800010037000000000015
:104f7000a50037002e009000e20f50001400320010
:104f8000e20f500003003e00e10f50000600320027
:104f90002d003700e30f500017003200e40f5000df
:104fa0001f00320028003700d01c8000ee800a006d
:104fb000000000000080fb0000f0a7000000ea00f5
:104fc0000000ea004f00de00004f78001f003700ad
:104fd000d01c8000dd800a00000000000080fb0083
:104fe00000f0a7000000ea000000ea004f00de0029
:104ff000004f780015003700d01c8000cc800a00dc
:10500000000000000080fb0000f0a7000000ea00a4
:105010000000ea004f00de00004f78000b00370070
:10502000d01c8000ff800a00000000000080fb0010
:1050300000f0a7000000ea000000ea004f00de00d8
:10504000004f780001003700000000006e003700bc
:105050002e009000e20f500014003200e20f5000ca
:1050600003003e00e10f5000060032002d00370023
:10507000e30f500017003200e40f50001f00320011
:1050800028003700801e8000ee800a00000000002b
:105090000080fb0000f0a7000000ea000000ea002a
:1050a0004f00de00004f78001f003700801e800098
:1050b000dd800a00000000000080fb0000f0a70077
:1050c0000000ea000000ea004f00de00004f780018
:1050d00015003700801e8000cc800a000000000010
:1050e0000080fb0000f0a7000000ea000000ea00da
:1050f0004f00de00004f78000b003700801e80005c
:10510000ff800a00000000000080fb0000f0a70004
:105110000000ea000000ea004f00de00004f7800c7
:105120000100370000000000370037002e0090001b
:10513000e20f500014003200e20f500003003e0066
:10514000e10f5000060032002d003700e30f500041
:1051500017003200e40f50001f0032002800370013
:1051600040258000ee800a00000000000080fb0067
:1051700000f0a7000000ea000000ea004f00de0097
:10518000004f78001f00370040258000dd800a00b6
:10519000000000000080fb0000f0a7000000ea0013
:1051a0000000ea004f00de00004f780015003700d5
:1051b00040258000cc800a00000000000080fb0039
:1051c00000f0a7000000ea000000ea004f00de0047
:1051d000004f78000b00370040258000ff800a0058
:1051e000000000000080fb0000f0a7000000ea00c3
:1051f0000000ea004f00de00004f78000100370099
:1052000000000000000000001e4078000080fa004e
:10521000000006000200fa00000f78001e0078006f
:10522000e30f500010003200e30f500005003e0075
:10523000e10f500008003200e20f50000800320079
:105240000f003700e40f500009003200e80f500053
:10525000090032000a0037002e63a800080037005a
:105260006463a800060037009a63a80004003700b2
:10527000d063a80002003700a864a8000000000066
:105280000080fa00000006000400fa0010079800f1
:105290000040eb00004f78001e009000e30f50002c
:1052a00020003200e30f500005003e00e10f5000e7
:1052b00008003200e20f50001000320037003700c3
:1052c000e40f500021003200e80f500029003200a6
:1052d000320037007019800044800a00000000008e
:1052e0000080fb0000f0a7000000ea000000ea00d8
:1052f0004f00de00004f780028003700201b8000a0
:1053000044800a00000000000080fb0000f0a700bd
:105310000000ea000000ea004f00de00004f7800c5
:105320001e003700d01c800044800a0000000000ee
:105330000080fb0000f0a7000000ea000000ea0087
:105340004f00de00004f780014003700801e800000
:1053500044800a00000000000080fb0000f0a7006d
:105360000000ea000000ea004f00de00004f780075
:105370000a0037004025800044800a000000000039
:105380000080fb0000f0a7000000ea000000ea0037
:105390004f00de00004f7800000000001e40780043
:1053a0000080fa00000006000400fa00000f7800f8
:1053b000110798001e007800e30f50001200320021
:1053c000e30f500005003e00e10f500008003200de
:1053d000e20f50000900320014003700e40f5000c3
:1053e0000c003200e80f50000d0032000f003700b3
:1053f0009e009000a11a88000c0037009e009000cb
:10540000511c8800090037009e009000011e880092
:10541000060037009e009000b11f8800030037008f
:105420009e00900071268800000000000080fa00b5
:10543000000006000400fa00000f78001107980031
:105440001e007800e30f500012003200e30f5000fe
